{
  "_format": "hh-sol-artifact-1",
  "contractName": "CertificateNFT",
  "sourceName": "contracts/CertificateNFT.sol",
  "abi": [
    {
      "inputs": [],
      "stateMutability": "nonpayable",
      "type": "constructor"
    },
    {
      "anonymous": false,
      "inputs": [
        {
          "indexed": true,
          "internalType": "address",
          "name": "owner",
          "type": "address"
        },
        {
          "indexed": true,
          "internalType": "address",
          "name": "approved",
          "type": "address"
        },
        {
          "indexed": true,
          "internalType": "uint256",
          "name": "tokenId",
          "type": "uint256"
        }
      ],
      "name": "Approval",
      "type": "event"
    },
    {
      "anonymous": false,
      "inputs": [
        {
          "indexed": true,
          "internalType": "address",
          "name": "owner",
          "type": "address"
        },
        {
          "indexed": true,
          "internalType": "address",
          "name": "operator",
          "type": "address"
        },
        {
          "indexed": false,
          "internalType": "bool",
          "name": "approved",
          "type": "bool"
        }
      ],
      "name": "ApprovalForAll",
      "type": "event"
    },
    {
      "anonymous": false,
      "inputs": [
        {
          "indexed": false,
          "internalType": "uint256",
          "name": "_fromTokenId",
          "type": "uint256"
        },
        {
          "indexed": false,
          "internalType": "uint256",
          "name": "_toTokenId",
          "type": "uint256"
        }
      ],
      "name": "BatchMetadataUpdate",
      "type": "event"
    },
    {
      "anonymous": false,
      "inputs": [
        {
          "indexed": true,
          "internalType": "uint256",
          "name": "tokenId",
          "type": "uint256"
        },
        {
          "indexed": true,
          "internalType": "address",
          "name": "student",
          "type": "address"
        },
        {
          "indexed": false,
          "internalType": "string",
          "name": "name",
          "type": "string"
        },
        {
          "indexed": false,
          "internalType": "string",
          "name": "institute",
          "type": "string"
        },
        {
          "indexed": false,
          "internalType": "uint256",
          "name": "issueDate",
          "type": "uint256"
        },
        {
          "indexed": false,
          "internalType": "string",
          "name": "certificateType",
          "type": "string"
        }
      ],
      "name": "CertificateIssued",
      "type": "event"
    },
    {
      "anonymous": false,
      "inputs": [
        {
          "indexed": true,
          "internalType": "uint256",
          "name": "requestId",
          "type": "uint256"
        },
        {
          "indexed": true,
          "internalType": "address",
          "name": "student",
          "type": "address"
        },
        {
          "indexed": true,
          "internalType": "address",
          "name": "institute",
          "type": "address"
        }
      ],
      "name": "CertificateRequestApproved",
      "type": "event"
    },
    {
      "anonymous": false,
      "inputs": [
        {
          "indexed": true,
          "internalType": "uint256",
          "name": "requestId",
          "type": "uint256"
        },
        {
          "indexed": true,
          "internalType": "address",
          "name": "student",
          "type": "address"
        },
        {
          "indexed": true,
          "internalType": "address",
          "name": "institute",
          "type": "address"
        },
        {
          "indexed": false,
          "internalType": "string",
          "name": "name",
          "type": "string"
        },
        {
          "indexed": false,
          "internalType": "string",
          "name": "message",
          "type": "string"
        },
        {
          "indexed": false,
          "internalType": "string",
          "name": "studentMetadataHash",
          "type": "string"
        }
      ],
      "name": "CertificateRequested",
      "type": "event"
    },
    {
      "anonymous": false,
      "inputs": [
        {
          "indexed": false,
          "internalType": "uint256",
          "name": "_tokenId",
          "type": "uint256"
        }
      ],
      "name": "MetadataUpdate",
      "type": "event"
    },
    {
      "anonymous": false,
      "inputs": [
        {
          "indexed": true,
          "internalType": "address",
          "name": "previousOwner",
          "type": "address"
        },
        {
          "indexed": true,
          "internalType": "address",
          "name": "newOwner",
          "type": "address"
        }
      ],
      "name": "OwnershipTransferred",
      "type": "event"
    },
    {
      "anonymous": false,
      "inputs": [
        {
          "indexed": true,
          "internalType": "address",
          "name": "from",
          "type": "address"
        },
        {
          "indexed": true,
          "internalType": "address",
          "name": "to",
          "type": "address"
        },
        {
          "indexed": true,
          "internalType": "uint256",
          "name": "tokenId",
          "type": "uint256"
        }
      ],
      "name": "Transfer",
      "type": "event"
    },
    {
      "inputs": [
        {
          "internalType": "address",
          "name": "to",
          "type": "address"
        },
        {
          "internalType": "uint256",
          "name": "tokenId",
          "type": "uint256"
        }
      ],
      "name": "approve",
      "outputs": [],
      "stateMutability": "nonpayable",
      "type": "function"
    },
    {
      "inputs": [
        {
          "internalType": "uint256",
          "name": "requestId",
          "type": "uint256"
        },
        {
          "internalType": "string",
          "name": "certificateType",
          "type": "string"
        },
        {
          "internalType": "string",
          "name": "tokenURI",
          "type": "string"
        },
        {
          "internalType": "string",
          "name": "institute",
          "type": "string"
        }
      ],
      "name": "approveCertificateRequest",
      "outputs": [],
      "stateMutability": "nonpayable",
      "type": "function"
    },
    {
      "inputs": [
        {
          "internalType": "address",
          "name": "institute",
          "type": "address"
        }
      ],
      "name": "authorizeInstitute",
      "outputs": [],
      "stateMutability": "nonpayable",
      "type": "function"
    },
    {
      "inputs": [
        {
          "internalType": "address",
          "name": "",
          "type": "address"
        }
      ],
      "name": "authorizedInstitutes",
      "outputs": [
        {
          "internalType": "bool",
          "name": "",
          "type": "bool"
        }
      ],
      "stateMutability": "view",
      "type": "function"
    },
    {
      "inputs": [
        {
          "internalType": "address",
          "name": "owner",
          "type": "address"
        }
      ],
      "name": "balanceOf",
      "outputs": [
        {
          "internalType": "uint256",
          "name": "",
          "type": "uint256"
        }
      ],
      "stateMutability": "view",
      "type": "function"
    },
    {
      "inputs": [
        {
          "internalType": "uint256",
          "name": "",
          "type": "uint256"
        }
      ],
      "name": "certificateRequests",
      "outputs": [
        {
          "internalType": "address",
          "name": "student",
          "type": "address"
        },
        {
          "internalType": "string",
          "name": "name",
          "type": "string"
        },
        {
          "internalType": "address",
          "name": "institute",
          "type": "address"
        },
        {
          "internalType": "string",
          "name": "message",
          "type": "string"
        },
        {
          "internalType": "string",
          "name": "studentMetadataHash",
          "type": "string"
        },
        {
          "internalType": "bool",
          "name": "approved",
          "type": "bool"
        }
      ],
      "stateMutability": "view",
      "type": "function"
    },
    {
      "inputs": [
        {
          "internalType": "uint256",
          "name": "",
          "type": "uint256"
        }
      ],
      "name": "certificates",
      "outputs": [
        {
          "internalType": "string",
          "name": "name",
          "type": "string"
        },
        {
          "internalType": "string",
          "name": "institute",
          "type": "string"
        },
        {
          "internalType": "uint256",
          "name": "issueDate",
          "type": "uint256"
        },
        {
          "internalType": "string",
          "name": "certificateType",
          "type": "string"
        },
        {
          "internalType": "address",
          "name": "student",
          "type": "address"
        }
      ],
      "stateMutability": "view",
      "type": "function"
    },
    {
      "inputs": [
        {
          "internalType": "uint256",
          "name": "tokenId",
          "type": "uint256"
        }
      ],
      "name": "getApproved",
      "outputs": [
        {
          "internalType": "address",
          "name": "",
          "type": "address"
        }
      ],
      "stateMutability": "view",
      "type": "function"
    },
    {
      "inputs": [
        {
          "internalType": "uint256",
          "name": "tokenId",
          "type": "uint256"
        }
      ],
      "name": "getCertificateDetails",
      "outputs": [
        {
          "internalType": "string",
          "name": "name",
          "type": "string"
        },
        {
          "internalType": "string",
          "name": "institute",
          "type": "string"
        },
        {
          "internalType": "uint256",
          "name": "issueDate",
          "type": "uint256"
        },
        {
          "internalType": "string",
          "name": "certificateType",
          "type": "string"
        },
        {
          "internalType": "address",
          "name": "student",
          "type": "address"
        }
      ],
      "stateMutability": "view",
      "type": "function"
    },
    {
      "inputs": [
        {
          "internalType": "address",
          "name": "student",
          "type": "address"
        }
      ],
      "name": "getStudentCertificates",
      "outputs": [
        {
          "internalType": "uint256[]",
          "name": "",
          "type": "uint256[]"
        }
      ],
      "stateMutability": "view",
      "type": "function"
    },
    {
      "inputs": [
        {
          "internalType": "address",
          "name": "owner",
          "type": "address"
        },
        {
          "internalType": "address",
          "name": "operator",
          "type": "address"
        }
      ],
      "name": "isApprovedForAll",
      "outputs": [
        {
          "internalType": "bool",
          "name": "",
          "type": "bool"
        }
      ],
      "stateMutability": "view",
      "type": "function"
    },
    {
      "inputs": [
        {
          "internalType": "address",
          "name": "student",
          "type": "address"
        },
        {
          "internalType": "string",
          "name": "name",
          "type": "string"
        },
        {
          "internalType": "string",
          "name": "institute",
          "type": "string"
        },
        {
          "internalType": "string",
          "name": "certificateType",
          "type": "string"
        },
        {
          "internalType": "string",
          "name": "tokenURI",
          "type": "string"
        }
      ],
      "name": "issueCertificate",
      "outputs": [
        {
          "internalType": "uint256",
          "name": "",
          "type": "uint256"
        }
      ],
      "stateMutability": "nonpayable",
      "type": "function"
    },
    {
      "inputs": [],
      "name": "name",
      "outputs": [
        {
          "internalType": "string",
          "name": "",
          "type": "string"
        }
      ],
      "stateMutability": "view",
      "type": "function"
    },
    {
      "inputs": [],
      "name": "owner",
      "outputs": [
        {
          "internalType": "address",
          "name": "",
          "type": "address"
        }
      ],
      "stateMutability": "view",
      "type": "function"
    },
    {
      "inputs": [
        {
          "internalType": "uint256",
          "name": "tokenId",
          "type": "uint256"
        }
      ],
      "name": "ownerOf",
      "outputs": [
        {
          "internalType": "address",
          "name": "",
          "type": "address"
        }
      ],
      "stateMutability": "view",
      "type": "function"
    },
    {
      "inputs": [],
      "name": "renounceOwnership",
      "outputs": [],
      "stateMutability": "nonpayable",
      "type": "function"
    },
    {
      "inputs": [
        {
          "internalType": "address",
          "name": "institute",
          "type": "address"
        },
        {
          "internalType": "string",
          "name": "name",
          "type": "string"
        },
        {
          "internalType": "string",
          "name": "message",
          "type": "string"
        },
        {
          "internalType": "string",
          "name": "studentMetadataHash",
          "type": "string"
        }
      ],
      "name": "requestCertificate",
      "outputs": [],
      "stateMutability": "nonpayable",
      "type": "function"
    },
    {
      "inputs": [],
      "name": "requestCounter",
      "outputs": [
        {
          "internalType": "uint256",
          "name": "",
          "type": "uint256"
        }
      ],
      "stateMutability": "view",
      "type": "function"
    },
    {
      "inputs": [
        {
          "internalType": "address",
          "name": "institute",
          "type": "address"
        }
      ],
      "name": "revokeInstitute",
      "outputs": [],
      "stateMutability": "nonpayable",
      "type": "function"
    },
    {
      "inputs": [
        {
          "internalType": "address",
          "name": "from",
          "type": "address"
        },
        {
          "internalType": "address",
          "name": "to",
          "type": "address"
        },
        {
          "internalType": "uint256",
          "name": "tokenId",
          "type": "uint256"
        }
      ],
      "name": "safeTransferFrom",
      "outputs": [],
      "stateMutability": "nonpayable",
      "type": "function"
    },
    {
      "inputs": [
        {
          "internalType": "address",
          "name": "from",
          "type": "address"
        },
        {
          "internalType": "address",
          "name": "to",
          "type": "address"
        },
        {
          "internalType": "uint256",
          "name": "tokenId",
          "type": "uint256"
        },
        {
          "internalType": "bytes",
          "name": "data",
          "type": "bytes"
        }
      ],
      "name": "safeTransferFrom",
      "outputs": [],
      "stateMutability": "nonpayable",
      "type": "function"
    },
    {
      "inputs": [
        {
          "internalType": "address",
          "name": "operator",
          "type": "address"
        },
        {
          "internalType": "bool",
          "name": "approved",
          "type": "bool"
        }
      ],
      "name": "setApprovalForAll",
      "outputs": [],
      "stateMutability": "nonpayable",
      "type": "function"
    },
    {
      "inputs": [
        {
          "internalType": "address",
          "name": "",
          "type": "address"
        },
        {
          "internalType": "uint256",
          "name": "",
          "type": "uint256"
        }
      ],
      "name": "studentCertificates",
      "outputs": [
        {
          "internalType": "uint256",
          "name": "",
          "type": "uint256"
        }
      ],
      "stateMutability": "view",
      "type": "function"
    },
    {
      "inputs": [
        {
          "internalType": "bytes4",
          "name": "interfaceId",
          "type": "bytes4"
        }
      ],
      "name": "supportsInterface",
      "outputs": [
        {
          "internalType": "bool",
          "name": "",
          "type": "bool"
        }
      ],
      "stateMutability": "view",
      "type": "function"
    },
    {
      "inputs": [],
      "name": "symbol",
      "outputs": [
        {
          "internalType": "string",
          "name": "",
          "type": "string"
        }
      ],
      "stateMutability": "view",
      "type": "function"
    },
    {
      "inputs": [
        {
          "internalType": "uint256",
          "name": "tokenId",
          "type": "uint256"
        }
      ],
      "name": "tokenURI",
      "outputs": [
        {
          "internalType": "string",
          "name": "",
          "type": "string"
        }
      ],
      "stateMutability": "view",
      "type": "function"
    },
    {
      "inputs": [
        {
          "internalType": "address",
          "name": "from",
          "type": "address"
        },
        {
          "internalType": "address",
          "name": "to",
          "type": "address"
        },
        {
          "internalType": "uint256",
          "name": "tokenId",
          "type": "uint256"
        }
      ],
      "name": "transferFrom",
      "outputs": [],
      "stateMutability": "nonpayable",
      "type": "function"
    },
    {
      "inputs": [
        {
          "internalType": "address",
          "name": "newOwner",
          "type": "address"
        }
      ],
      "name": "transferOwnership",
      "outputs": [],
      "stateMutability": "nonpayable",
      "type": "function"
    }
  ],
  "bytecode": "0x608060405234801561001057600080fd5b506040518060400160405280601481526020017f41636164656d69632043657274696669636174650000000000000000000000008152506040518060400160405280600481526020016310d1549560e21b81525081600090816100739190610193565b5060016100808282610193565b50505061009961009461009e60201b60201c565b6100a2565b610251565b3390565b600780546001600160a01b038381166001600160a01b0319831681179093556040519116919082907f8be0079c531659141344cd1fd0a4f28419497f9722a3daafe3b4186f6b6457e090600090a35050565b634e487b7160e01b600052604160045260246000fd5b600181811c9082168061011e57607f821691505b60208210810361013e57634e487b7160e01b600052602260045260246000fd5b50919050565b601f82111561018e57806000526020600020601f840160051c8101602085101561016b5750805b601f840160051c820191505b8181101561018b5760008155600101610177565b50505b505050565b81516001600160401b038111156101ac576101ac6100f4565b6101c0816101ba845461010a565b84610144565b6020601f8211600181146101f457600083156101dc5750848201515b600019600385901b1c1916600184901b17845561018b565b600084815260208120601f198516915b828110156102245787850151825560209485019460019092019101610204565b50848210156102425786840151600019600387901b60f8161c191681555b50505050600190811b01905550565b612838806102606000396000f3fe608060405234801561001057600080fd5b50600436106101c45760003560e01c80637aa7155b116100f9578063b88d4fde11610097578063e985e9c511610071578063e985e9c5146103e1578063e9dd92ee1461041d578063ebc63bc014610430578063f2fde38b1461045057600080fd5b8063b88d4fde146103a8578063c3934f0e146103bb578063c87b56dd146103ce57600080fd5b8063973a814e116100d3578063973a814e14610366578063a22cb4651461036f578063a901fe5e14610382578063b62710d91461039557600080fd5b80637aa7155b1461033a5780638da5cb5b1461034d57806395d89b411461035e57600080fd5b80635244f9e1116101665780636352211e116101405780636352211e146102da578063663b3e22146102ed57806370a0823114610311578063715018a61461033257600080fd5b80635244f9e11461027f57806362594b24146102a25780636332a4ea146102b557600080fd5b8063095ea7b3116101a2578063095ea7b31461023157806323b872dd1461024657806331dc38ac1461025957806342842e0e1461026c57600080fd5b806301ffc9a7146101c957806306fdde03146101f1578063081812fc14610206575b600080fd5b6101dc6101d7366004611f34565b610463565b60405190151581526020015b60405180910390f35b6101f961048e565b6040516101e89190611fa1565b610219610214366004611fb4565b610520565b6040516001600160a01b0390911681526020016101e8565b61024461023f366004611fe9565b610547565b005b610244610254366004612013565b610661565b6102446102673660046120fe565b610692565b61024461027a366004612013565b610886565b6101dc61028d366004612199565b600b6020526000908152604090205460ff1681565b6102446102b0366004612199565b6108a1565b6102c86102c3366004611fb4565b6108cd565b6040516101e8969594939291906121b4565b6102196102e8366004611fb4565b610ab6565b6103006102fb366004611fb4565b610b16565b6040516101e8959493929190612223565b61032461031f366004612199565b610ce5565b6040519081526020016101e8565b610244610d6b565b610244610348366004612199565b610d7f565b6007546001600160a01b0316610219565b6101f9610da8565b610324600d5481565b61024461037d36600461227d565b610db7565b610300610390366004611fb4565b610dc6565b6102446103a33660046122b9565b610feb565b6102446103b63660046122f3565b611130565b6103246103c9366004611fe9565b611168565b6101f96103dc366004611fb4565b611199565b6101dc6103ef366004612362565b6001600160a01b03918216600090815260056020908152604080832093909416825291909152205460ff1690565b61032461042b366004612395565b6112a9565b61044361043e366004612199565b611458565b6040516101e89190612462565b61024461045e366004612199565b6114c4565b60006001600160e01b03198216632483248360e11b148061048857506104888261153d565b92915050565b60606000805461049d906124a5565b80601f01602080910402602001604051908101604052809291908181526020018280546104c9906124a5565b80156105165780601f106104eb57610100808354040283529160200191610516565b820191906000526020600020905b8154815290600101906020018083116104f957829003601f168201915b5050505050905090565b600061052b8261158d565b506000908152600460205260409020546001600160a01b031690565b600061055282610ab6565b9050806001600160a01b0316836001600160a01b0316036105c45760405162461bcd60e51b815260206004820152602160248201527f4552433732313a20617070726f76616c20746f2063757272656e74206f776e656044820152603960f91b60648201526084015b60405180910390fd5b336001600160a01b03821614806105e057506105e081336103ef565b6106525760405162461bcd60e51b815260206004820152603d60248201527f4552433732313a20617070726f76652063616c6c6572206973206e6f7420746f60448201527f6b656e206f776e6572206f7220617070726f76656420666f7220616c6c00000060648201526084016105bb565b61065c83836115ec565b505050565b61066b338261165a565b6106875760405162461bcd60e51b81526004016105bb906124df565b61065c8383836116d8565b6000848152600c6020526040902080546001600160a01b03166106e95760405162461bcd60e51b815260206004820152600f60248201526e125b9d985b1a59081c995c5d595cdd608a1b60448201526064016105bb565b336000908152600b602052604090205460ff166107485760405162461bcd60e51b815260206004820152601960248201527f4e6f7420617574686f72697a656420746f20617070726f76650000000000000060448201526064016105bb565b600581015460ff16156107905760405162461bcd60e51b815260206004820152601060248201526f105b1c9958591e48185c1c1c9bdd995960821b60448201526064016105bb565b8054600182018054610836926001600160a01b031691906107b0906124a5565b80601f01602080910402602001604051908101604052809291908181526020018280546107dc906124a5565b80156108295780601f106107fe57610100808354040283529160200191610829565b820191906000526020600020905b81548152906001019060200180831161080c57829003601f168201915b50505050508487876112a9565b5060058101805460ff19166001179055805460405133916001600160a01b03169087907ff1ee664cbcdee0c3ae1e95435c6ebcd4f2b82cdc8151eb101a0c1faa00e7bf7290600090a45050505050565b61065c83838360405180602001604052806000815250611130565b6108a961183c565b6001600160a01b03166000908152600b60205260409020805460ff19166001179055565b600c60205260009081526040902080546001820180546001600160a01b0390921692916108f9906124a5565b80601f0160208091040260200160405190810160405280929190818152602001828054610925906124a5565b80156109725780601f1061094757610100808354040283529160200191610972565b820191906000526020600020905b81548152906001019060200180831161095557829003601f168201915b505050600284015460038501805494956001600160a01b0390921694919350915061099c906124a5565b80601f01602080910402602001604051908101604052809291908181526020018280546109c8906124a5565b8015610a155780601f106109ea57610100808354040283529160200191610a15565b820191906000526020600020905b8154815290600101906020018083116109f857829003601f168201915b505050505090806004018054610a2a906124a5565b80601f0160208091040260200160405190810160405280929190818152602001828054610a56906124a5565b8015610aa35780601f10610a7857610100808354040283529160200191610aa3565b820191906000526020600020905b815481529060010190602001808311610a8657829003601f168201915b5050506005909301549192505060ff1686565b6000818152600260205260408120546001600160a01b0316806104885760405162461bcd60e51b8152602060048201526018602482015277115490cdcc8c4e881a5b9d985b1a59081d1bdad95b88125160421b60448201526064016105bb565b600960205260009081526040902080548190610b31906124a5565b80601f0160208091040260200160405190810160405280929190818152602001828054610b5d906124a5565b8015610baa5780601f10610b7f57610100808354040283529160200191610baa565b820191906000526020600020905b815481529060010190602001808311610b8d57829003601f168201915b505050505090806001018054610bbf906124a5565b80601f0160208091040260200160405190810160405280929190818152602001828054610beb906124a5565b8015610c385780601f10610c0d57610100808354040283529160200191610c38565b820191906000526020600020905b815481529060010190602001808311610c1b57829003601f168201915b505050505090806002015490806003018054610c53906124a5565b80601f0160208091040260200160405190810160405280929190818152602001828054610c7f906124a5565b8015610ccc5780601f10610ca157610100808354040283529160200191610ccc565b820191906000526020600020905b815481529060010190602001808311610caf57829003601f168201915b505050600490930154919250506001600160a01b031685565b60006001600160a01b038216610d4f5760405162461bcd60e51b815260206004820152602960248201527f4552433732313a2061646472657373207a65726f206973206e6f7420612076616044820152683634b21037bbb732b960b91b60648201526084016105bb565b506001600160a01b031660009081526003602052604090205490565b610d7361183c565b610d7d6000611896565b565b610d8761183c565b6001600160a01b03166000908152600b60205260409020805460ff19169055565b60606001805461049d906124a5565b610dc23383836118e8565b5050565b60608060006060600080600960008881526020019081526020016000206040518060a0016040529081600082018054610dfe906124a5565b80601f0160208091040260200160405190810160405280929190818152602001828054610e2a906124a5565b8015610e775780601f10610e4c57610100808354040283529160200191610e77565b820191906000526020600020905b815481529060010190602001808311610e5a57829003601f168201915b50505050508152602001600182018054610e90906124a5565b80601f0160208091040260200160405190810160405280929190818152602001828054610ebc906124a5565b8015610f095780601f10610ede57610100808354040283529160200191610f09565b820191906000526020600020905b815481529060010190602001808311610eec57829003601f168201915b5050505050815260200160028201548152602001600382018054610f2c906124a5565b80601f0160208091040260200160405190810160405280929190818152602001828054610f58906124a5565b8015610fa55780601f10610f7a57610100808354040283529160200191610fa5565b820191906000526020600020905b815481529060010190602001808311610f8857829003601f168201915b5050509183525050600491909101546001600160a01b031660209182015281519082015160408301516060840151608090940151929b919a509850919650945092505050565b600d8054906000610ffb8361252c565b90915550506040805160c08101825233815260208082018681526001600160a01b03888116848601526060840187905260808401869052600060a08501819052600d548152600c90935293909120825181546001600160a01b031916941693909317835551909190600182019061107290826125a1565b5060408201516002820180546001600160a01b0319166001600160a01b03909216919091179055606082015160038201906110ad90826125a1565b50608082015160048201906110c290826125a1565b5060a091909101516005909101805460ff1916911515919091179055600d546040516001600160a01b0386169133917f6cfbe1a9708ed98d926c488c5da68922a21c12ba065f040c172144ce628b849a906111229088908890889061265f565b60405180910390a450505050565b61113a338361165a565b6111565760405162461bcd60e51b81526004016105bb906124df565b611162848484846119b6565b50505050565b600a602052816000526040600020818154811061118457600080fd5b90600052602060002001600091509150505481565b60606111a48261158d565b600082815260066020526040812080546111bd906124a5565b80601f01602080910402602001604051908101604052809291908181526020018280546111e9906124a5565b80156112365780601f1061120b57610100808354040283529160200191611236565b820191906000526020600020905b81548152906001019060200180831161121957829003601f168201915b50505050509050600061125460408051602081019091526000815290565b90508051600003611266575092915050565b8151156112985780826040516020016112809291906126a2565b60405160208183030381529060405292505050919050565b6112a1846119e9565b949350505050565b336000908152600b602052604081205460ff166113145760405162461bcd60e51b8152602060048201526024808201527f4e6f7420617574686f72697a656420746f2069737375652063657274696669636044820152636174657360e01b60648201526084016105bb565b611322600880546001019055565b600061132d60085490565b90506113398782611a5d565b6113438184611be8565b6040805160a08101825287815260208082018890524282840152606082018790526001600160a01b038a16608083015260008481526009909152919091208151819061138f90826125a1565b50602082015160018201906113a490826125a1565b5060408201516002820155606082015160038201906113c390826125a1565b5060809190910151600490910180546001600160a01b0319166001600160a01b0392831617905587166000818152600a60209081526040808320805460018101825590845291909220018390555182907f55771991ffa371c9dd2db01cda7cd1f387b5c4799385b30ac842da0ba782451890611446908a908a9042908b906126d1565b60405180910390a39695505050505050565b6001600160a01b0381166000908152600a60209081526040918290208054835181840281018401909452808452606093928301828280156114b857602002820191906000526020600020905b8154815260200190600101908083116114a4575b50505050509050919050565b6114cc61183c565b6001600160a01b0381166115315760405162461bcd60e51b815260206004820152602660248201527f4f776e61626c653a206e6577206f776e657220697320746865207a65726f206160448201526564647265737360d01b60648201526084016105bb565b61153a81611896565b50565b60006001600160e01b031982166380ac58cd60e01b148061156e57506001600160e01b03198216635b5e139f60e01b145b8061048857506301ffc9a760e01b6001600160e01b0319831614610488565b6000818152600260205260409020546001600160a01b031661153a5760405162461bcd60e51b8152602060048201526018602482015277115490cdcc8c4e881a5b9d985b1a59081d1bdad95b88125160421b60448201526064016105bb565b600081815260046020526040902080546001600160a01b0319166001600160a01b038416908117909155819061162182610ab6565b6001600160a01b03167f8c5be1e5ebec7d5bd14f71427d1e84f3dd0314c0f7b2291e5b200ac8c7c3b92560405160405180910390a45050565b60008061166683610ab6565b9050806001600160a01b0316846001600160a01b031614806116ad57506001600160a01b0380821660009081526005602090815260408083209388168352929052205460ff165b806112a15750836001600160a01b03166116c684610520565b6001600160a01b031614949350505050565b826001600160a01b03166116eb82610ab6565b6001600160a01b0316146117115760405162461bcd60e51b81526004016105bb9061271b565b6001600160a01b0382166117735760405162461bcd60e51b8152602060048201526024808201527f4552433732313a207472616e7366657220746f20746865207a65726f206164646044820152637265737360e01b60648201526084016105bb565b826001600160a01b031661178682610ab6565b6001600160a01b0316146117ac5760405162461bcd60e51b81526004016105bb9061271b565b600081815260046020908152604080832080546001600160a01b03199081169091556001600160a01b0387811680865260038552838620805460001901905590871680865283862080546001019055868652600290945282852080549092168417909155905184937fddf252ad1be2c89b69c2b068fc378daa952ba7f163c4a11628f55a4df523b3ef91a4505050565b6007546001600160a01b03163314610d7d5760405162461bcd60e51b815260206004820181905260248201527f4f776e61626c653a2063616c6c6572206973206e6f7420746865206f776e657260448201526064016105bb565b600780546001600160a01b038381166001600160a01b0319831681179093556040519116919082907f8be0079c531659141344cd1fd0a4f28419497f9722a3daafe3b4186f6b6457e090600090a35050565b816001600160a01b0316836001600160a01b0316036119495760405162461bcd60e51b815260206004820152601960248201527f4552433732313a20617070726f766520746f2063616c6c65720000000000000060448201526064016105bb565b6001600160a01b03838116600081815260056020908152604080832094871680845294825291829020805460ff191686151590811790915591519182527f17307eab39ab6107e8899845ad3d59bd9653f200f220920489ca2b5937696c31910160405180910390a3505050565b6119c18484846116d8565b6119cd84848484611cb3565b6111625760405162461bcd60e51b81526004016105bb90612760565b60606119f48261158d565b6000611a0b60408051602081019091526000815290565b90506000815111611a2b5760405180602001604052806000815250611a56565b80611a3584611db4565b604051602001611a469291906126a2565b6040516020818303038152906040525b9392505050565b6001600160a01b038216611ab35760405162461bcd60e51b815260206004820181905260248201527f4552433732313a206d696e7420746f20746865207a65726f206164647265737360448201526064016105bb565b6000818152600260205260409020546001600160a01b031615611b185760405162461bcd60e51b815260206004820152601c60248201527f4552433732313a20746f6b656e20616c7265616479206d696e7465640000000060448201526064016105bb565b6000818152600260205260409020546001600160a01b031615611b7d5760405162461bcd60e51b815260206004820152601c60248201527f4552433732313a20746f6b656e20616c7265616479206d696e7465640000000060448201526064016105bb565b6001600160a01b038216600081815260036020908152604080832080546001019055848352600290915280822080546001600160a01b0319168417905551839291907fddf252ad1be2c89b69c2b068fc378daa952ba7f163c4a11628f55a4df523b3ef908290a45050565b6000828152600260205260409020546001600160a01b0316611c635760405162461bcd60e51b815260206004820152602e60248201527f45524337323155524953746f726167653a2055524920736574206f66206e6f6e60448201526d32bc34b9ba32b73a103a37b5b2b760911b60648201526084016105bb565b6000828152600660205260409020611c7b82826125a1565b506040518281527ff8e1a15aba9398e019f0b49df1a4fde98ee17ae345cb5f6b5e2c27f5033e8ce79060200160405180910390a15050565b60006001600160a01b0384163b15611da957604051630a85bd0160e11b81526001600160a01b0385169063150b7a0290611cf79033908990889088906004016127b2565b6020604051808303816000875af1925050508015611d32575060408051601f3d908101601f19168201909252611d2f918101906127e5565b60015b611d8f573d808015611d60576040519150601f19603f3d011682016040523d82523d6000602084013e611d65565b606091505b508051600003611d875760405162461bcd60e51b81526004016105bb90612760565b805181602001fd5b6001600160e01b031916630a85bd0160e11b1490506112a1565b506001949350505050565b60606000611dc183611e46565b60010190506000816001600160401b03811115611de057611de0612050565b6040519080825280601f01601f191660200182016040528015611e0a576020820181803683370190505b5090508181016020015b600019016f181899199a1a9b1b9c1cb0b131b232b360811b600a86061a8153600a8504945084611e1457509392505050565b60008072184f03e93ff9f4daa797ed6e38ed64bf6a1f0160401b8310611e855772184f03e93ff9f4daa797ed6e38ed64bf6a1f0160401b830492506040015b6d04ee2d6d415b85acef81000000008310611eb1576d04ee2d6d415b85acef8100000000830492506020015b662386f26fc100008310611ecf57662386f26fc10000830492506010015b6305f5e1008310611ee7576305f5e100830492506008015b6127108310611efb57612710830492506004015b60648310611f0d576064830492506002015b600a83106104885760010192915050565b6001600160e01b03198116811461153a57600080fd5b600060208284031215611f4657600080fd5b8135611a5681611f1e565b60005b83811015611f6c578181015183820152602001611f54565b50506000910152565b60008151808452611f8d816020860160208601611f51565b601f01601f19169290920160200192915050565b602081526000611a566020830184611f75565b600060208284031215611fc657600080fd5b5035919050565b80356001600160a01b0381168114611fe457600080fd5b919050565b60008060408385031215611ffc57600080fd5b61200583611fcd565b946020939093013593505050565b60008060006060848603121561202857600080fd5b61203184611fcd565b925061203f60208501611fcd565b929592945050506040919091013590565b634e487b7160e01b600052604160045260246000fd5b6000806001600160401b0384111561208057612080612050565b50604051601f19601f85018116603f011681018181106001600160401b03821117156120ae576120ae612050565b6040528381529050808284018510156120c657600080fd5b83836020830137600060208583010152509392505050565b600082601f8301126120ef57600080fd5b611a5683833560208501612066565b6000806000806080858703121561211457600080fd5b8435935060208501356001600160401b0381111561213157600080fd5b61213d878288016120de565b93505060408501356001600160401b0381111561215957600080fd5b612165878288016120de565b92505060608501356001600160401b0381111561218157600080fd5b61218d878288016120de565b91505092959194509250565b6000602082840312156121ab57600080fd5b611a5682611fcd565b6001600160a01b038716815260c0602082018190526000906121d890830188611f75565b6001600160a01b038716604084015282810360608401526121f98187611f75565b9050828103608084015261220d8186611f75565b91505082151560a0830152979650505050505050565b60a08152600061223660a0830188611f75565b82810360208401526122488188611f75565b905085604084015282810360608401526122628186611f75565b91505060018060a01b03831660808301529695505050505050565b6000806040838503121561229057600080fd5b61229983611fcd565b9150602083013580151581146122ae57600080fd5b809150509250929050565b600080600080608085870312156122cf57600080fd5b6122d885611fcd565b935060208501356001600160401b0381111561213157600080fd5b6000806000806080858703121561230957600080fd5b61231285611fcd565b935061232060208601611fcd565b92506040850135915060608501356001600160401b0381111561234257600080fd5b8501601f8101871361235357600080fd5b61218d87823560208401612066565b6000806040838503121561237557600080fd5b61237e83611fcd565b915061238c60208401611fcd565b90509250929050565b600080600080600060a086880312156123ad57600080fd5b6123b686611fcd565b945060208601356001600160401b038111156123d157600080fd5b6123dd888289016120de565b94505060408601356001600160401b038111156123f957600080fd5b612405888289016120de565b93505060608601356001600160401b0381111561242157600080fd5b61242d888289016120de565b92505060808601356001600160401b0381111561244957600080fd5b612455888289016120de565b9150509295509295909350565b602080825282518282018190526000918401906040840190835b8181101561249a57835183526020938401939092019160010161247c565b509095945050505050565b600181811c908216806124b957607f821691505b6020821081036124d957634e487b7160e01b600052602260045260246000fd5b50919050565b6020808252602d908201527f4552433732313a2063616c6c6572206973206e6f7420746f6b656e206f776e6560408201526c1c881bdc88185c1c1c9bdd9959609a1b606082015260800190565b60006001820161254c57634e487b7160e01b600052601160045260246000fd5b5060010190565b601f82111561065c57806000526020600020601f840160051c8101602085101561257a5750805b601f840160051c820191505b8181101561259a5760008155600101612586565b5050505050565b81516001600160401b038111156125ba576125ba612050565b6125ce816125c884546124a5565b84612553565b6020601f82116001811461260257600083156125ea5750848201515b600019600385901b1c1916600184901b17845561259a565b600084815260208120601f198516915b828110156126325787850151825560209485019460019092019101612612565b50848210156126505786840151600019600387901b60f8161c191681555b50505050600190811b01905550565b6060815260006126726060830186611f75565b82810360208401526126848186611f75565b905082810360408401526126988185611f75565b9695505050505050565b600083516126b4818460208801611f51565b8351908301906126c8818360208801611f51565b01949350505050565b6080815260006126e46080830187611f75565b82810360208401526126f68187611f75565b905084604084015282810360608401526127108185611f75565b979650505050505050565b60208082526025908201527f4552433732313a207472616e736665722066726f6d20696e636f72726563742060408201526437bbb732b960d91b606082015260800190565b60208082526032908201527f4552433732313a207472616e7366657220746f206e6f6e20455243373231526560408201527131b2b4bb32b91034b6b83632b6b2b73a32b960711b606082015260800190565b6001600160a01b038581168252841660208201526040810183905260806060820181905260009061269890830184611f75565b6000602082840312156127f757600080fd5b8151611a5681611f1e56fea26469706673582212207d4c6368974e729e6e7a83b360ffe59ec1972987994c582873b6fb4817dd978064736f6c634300081c0033",
  "linkReferences": {},
  "deployedLinkReferences": {}
}