{"contracts/CertificateRegistry.sol":{"CertificateRegistry":{"abi":[{"anonymous":false,"inputs":[{"indexed":true,"internalType":"address","name":"account","type":"address"},{"indexed":false,"internalType":"enum CertificateRegistry.Role","name":"role","type":"uint8"}],"name":"Registered","type":"event"},{"inputs":[],"name":"PROVIDER_DATA_KEY","outputs":[{"internalType":"bytes32","name":"","type":"bytes32"}],"stateMutability":"view","type":"function"},{"inputs":[],"name":"STUDENT_DATA_KEY","outputs":[{"internalType":"bytes32","name":"","type":"bytes32"}],"stateMutability":"view","type":"function"},{"inputs":[],"name":"registerAsProvider","outputs":[],"stateMutability":"nonpayable","type":"function"},{"inputs":[{"internalType":"bytes32","name":"studentIdHash","type":"bytes32"}],"name":"registerAsStudent","outputs":[],"stateMutability":"nonpayable","type":"function"},{"inputs":[{"internalType":"address","name":"","type":"address"}],"name":"roles","outputs":[{"internalType":"enum CertificateRegistry.Role","name":"","type":"uint8"}],"stateMutability":"view","type":"function"}],"evm":{"bytecode":{"linkReferences":{},"object":"6080604052348015600f57600080fd5b506106578061001f6000396000f3fe608060405234801561001057600080fd5b50600436106100575760003560e01c80634adf53f41461005c5780635898fd631461007157806399374642146100ab578063b4d4dc05146100db578063f3f9dfdf146100e3575b600080fd5b61006f61006a3660046104b5565b61010a565b005b6100987fcca8575ab1e8123d663a74136dbbd0eae83f7a68284ee4d979c790afb650611281565b6040519081526020015b60405180910390f35b6100ce6100b93660046104ce565b60006020819052908152604090205460ff1681565b6040516100a29190610514565b61006f61031b565b6100987fa2988daf8d1349ef7f6c84222c2f9bba1a631f657048e529ab354fff6cf2cf7a81565b3360009081526020819052604081205460ff16600281111561012e5761012e6104fe565b146101755760405162461bcd60e51b8152602060048201526012602482015271105b1c9958591e481c9959da5cdd195c995960721b60448201526064015b60405180910390fd5b6040516354f6127f60e01b81527fa2988daf8d1349ef7f6c84222c2f9bba1a631f657048e529ab354fff6cf2cf7a6004820152339060009082906354f6127f90602401600060405180830381865afa1580156101d5573d6000803e3d6000fd5b505050506040513d6000823e601f3d908101601f191682016040526101fd9190810190610552565b905060008151116102475760405162461bcd60e51b815260206004820152601460248201527353747564656e742064617461206d697373696e6760601b604482015260640161016c565b6000838152600160205260409020546001600160a01b03161561029f5760405162461bcd60e51b815260206004820152601060248201526f29ba3ab232b73a1024a2103a30b5b2b760811b604482015260640161016c565b600083815260016020818152604080842080546001600160a01b0319166001600160a01b0388169081179091558085529184905292839020805460ff19168317905591517f89b4e995568c900aa52376cbed225dc1a013c9a43cb58186d69676ff593d7c4e9161030e91610514565b60405180910390a2505050565b3360009081526020819052604081205460ff16600281111561033f5761033f6104fe565b146103815760405162461bcd60e51b8152602060048201526012602482015271105b1c9958591e481c9959da5cdd195c995960721b604482015260640161016c565b6040516354f6127f60e01b81527fcca8575ab1e8123d663a74136dbbd0eae83f7a68284ee4d979c790afb65061126004820152339060009082906354f6127f90602401600060405180830381865afa1580156103e1573d6000803e3d6000fd5b505050506040513d6000823e601f3d908101601f191682016040526104099190810190610552565b905060008151116104545760405162461bcd60e51b815260206004820152601560248201527450726f76696465722064617461206d697373696e6760581b604482015260640161016c565b6001600160a01b03821660008181526020819052604090819020805460ff1916600290811790915590517f89b4e995568c900aa52376cbed225dc1a013c9a43cb58186d69676ff593d7c4e916104a991610514565b60405180910390a25050565b6000602082840312156104c757600080fd5b5035919050565b6000602082840312156104e057600080fd5b81356001600160a01b03811681146104f757600080fd5b9392505050565b634e487b7160e01b600052602160045260246000fd5b602081016003831061053657634e487b7160e01b600052602160045260246000fd5b91905290565b634e487b7160e01b600052604160045260246000fd5b60006020828403121561056457600080fd5b815167ffffffffffffffff81111561057b57600080fd5b8201601f8101841361058c57600080fd5b805167ffffffffffffffff8111156105a6576105a661053c565b604051601f8201601f19908116603f0116810167ffffffffffffffff811182821017156105d5576105d561053c565b6040528181528282016020018610156105ed57600080fd5b60005b8281101561060c576020818501810151838301820152016105f0565b5060009181016020019190915294935050505056fea2646970667358221220f0cc1cf65f4f423c45fc2089f11830cf9e1e182ebc8b3c490637e8f0718e1fd864736f6c634300081c0033","opcodes":"PUSH1 0x80 PUSH1 0x40 MSTORE CALLVALUE DUP1 ISZERO PUSH1 0xF JUMPI PUSH1 0x0 DUP1 REVERT JUMPDEST POP PUSH2 0x657 DUP1 PUSH2 0x1F PUSH1 0x0 CODECOPY PUSH1 0x0 RETURN INVALID PUSH1 0x80 PUSH1 0x40 MSTORE CALLVALUE DUP1 ISZERO PUSH2 0x10 JUMPI PUSH1 0x0 DUP1 REVERT JUMPDEST POP PUSH1 0x4 CALLDATASIZE LT PUSH2 0x57 JUMPI PUSH1 0x0 CALLDATALOAD PUSH1 0xE0 SHR DUP1 PUSH4 0x4ADF53F4 EQ PUSH2 0x5C JUMPI DUP1 PUSH4 0x5898FD63 EQ PUSH2 0x71 JUMPI DUP1 PUSH4 0x99374642 EQ PUSH2 0xAB JUMPI DUP1 PUSH4 0xB4D4DC05 EQ PUSH2 0xDB JUMPI DUP1 PUSH4 0xF3F9DFDF EQ PUSH2 0xE3 JUMPI JUMPDEST PUSH1 0x0 DUP1 REVERT JUMPDEST PUSH2 0x6F PUSH2 0x6A CALLDATASIZE PUSH1 0x4 PUSH2 0x4B5 JUMP JUMPDEST PUSH2 0x10A JUMP JUMPDEST STOP JUMPDEST PUSH2 0x98 PUSH32 0xCCA8575AB1E8123D663A74136DBBD0EAE83F7A68284EE4D979C790AFB6506112 DUP2 JUMP JUMPDEST PUSH1 0x40 MLOAD SWAP1 DUP2 MSTORE PUSH1 0x20 ADD JUMPDEST PUSH1 0x40 MLOAD DUP1 SWAP2 SUB SWAP1 RETURN JUMPDEST PUSH2 0xCE PUSH2 0xB9 CALLDATASIZE PUSH1 0x4 PUSH2 0x4CE JUMP JUMPDEST PUSH1 0x0 PUSH1 0x20 DUP2 SWAP1 MSTORE SWAP1 DUP2 MSTORE PUSH1 0x40 SWAP1 KECCAK256 SLOAD PUSH1 0xFF AND DUP2 JUMP JUMPDEST PUSH1 0x40 MLOAD PUSH2 0xA2 SWAP2 SWAP1 PUSH2 0x514 JUMP JUMPDEST PUSH2 0x6F PUSH2 0x31B JUMP JUMPDEST PUSH2 0x98 PUSH32 0xA2988DAF8D1349EF7F6C84222C2F9BBA1A631F657048E529AB354FFF6CF2CF7A DUP2 JUMP JUMPDEST CALLER PUSH1 0x0 SWAP1 DUP2 MSTORE PUSH1 0x20 DUP2 SWAP1 MSTORE PUSH1 0x40 DUP2 KECCAK256 SLOAD PUSH1 0xFF AND PUSH1 0x2 DUP2 GT ISZERO PUSH2 0x12E JUMPI PUSH2 0x12E PUSH2 0x4FE JUMP JUMPDEST EQ PUSH2 0x175 JUMPI PUSH1 0x40 MLOAD PUSH3 0x461BCD PUSH1 0xE5 SHL DUP2 MSTORE PUSH1 0x20 PUSH1 0x4 DUP3 ADD MSTORE PUSH1 0x12 PUSH1 0x24 DUP3 ADD MSTORE PUSH18 0x105B1C9958591E481C9959DA5CDD195C9959 PUSH1 0x72 SHL PUSH1 0x44 DUP3 ADD MSTORE PUSH1 0x64 ADD JUMPDEST PUSH1 0x40 MLOAD DUP1 SWAP2 SUB SWAP1 REVERT JUMPDEST PUSH1 0x40 MLOAD PUSH4 0x54F6127F PUSH1 0xE0 SHL DUP2 MSTORE PUSH32 0xA2988DAF8D1349EF7F6C84222C2F9BBA1A631F657048E529AB354FFF6CF2CF7A PUSH1 0x4 DUP3 ADD MSTORE CALLER SWAP1 PUSH1 0x0 SWAP1 DUP3 SWAP1 PUSH4 0x54F6127F SWAP1 PUSH1 0x24 ADD PUSH1 0x0 PUSH1 0x40 MLOAD DUP1 DUP4 SUB DUP2 DUP7 GAS STATICCALL ISZERO DUP1 ISZERO PUSH2 0x1D5 JUMPI RETURNDATASIZE PUSH1 0x0 DUP1 RETURNDATACOPY RETURNDATASIZE PUSH1 0x0 REVERT JUMPDEST POP POP POP POP PUSH1 0x40 MLOAD RETURNDATASIZE PUSH1 0x0 DUP3 RETURNDATACOPY PUSH1 0x1F RETURNDATASIZE SWAP1 DUP2 ADD PUSH1 0x1F NOT AND DUP3 ADD PUSH1 0x40 MSTORE PUSH2 0x1FD SWAP2 SWAP1 DUP2 ADD SWAP1 PUSH2 0x552 JUMP JUMPDEST SWAP1 POP PUSH1 0x0 DUP2 MLOAD GT PUSH2 0x247 JUMPI PUSH1 0x40 MLOAD PUSH3 0x461BCD PUSH1 0xE5 SHL DUP2 MSTORE PUSH1 0x20 PUSH1 0x4 DUP3 ADD MSTORE PUSH1 0x14 PUSH1 0x24 DUP3 ADD MSTORE PUSH20 0x53747564656E742064617461206D697373696E67 PUSH1 0x60 SHL PUSH1 0x44 DUP3 ADD MSTORE PUSH1 0x64 ADD PUSH2 0x16C JUMP JUMPDEST PUSH1 0x0 DUP4 DUP2 MSTORE PUSH1 0x1 PUSH1 0x20 MSTORE PUSH1 0x40 SWAP1 KECCAK256 SLOAD PUSH1 0x1 PUSH1 0x1 PUSH1 0xA0 SHL SUB AND ISZERO PUSH2 0x29F JUMPI PUSH1 0x40 MLOAD PUSH3 0x461BCD PUSH1 0xE5 SHL DUP2 MSTORE PUSH1 0x20 PUSH1 0x4 DUP3 ADD MSTORE PUSH1 0x10 PUSH1 0x24 DUP3 ADD MSTORE PUSH16 0x29BA3AB232B73A1024A2103A30B5B2B7 PUSH1 0x81 SHL PUSH1 0x44 DUP3 ADD MSTORE PUSH1 0x64 ADD PUSH2 0x16C JUMP JUMPDEST PUSH1 0x0 DUP4 DUP2 MSTORE PUSH1 0x1 PUSH1 0x20 DUP2 DUP2 MSTORE PUSH1 0x40 DUP1 DUP5 KECCAK256 DUP1 SLOAD PUSH1 0x1 PUSH1 0x1 PUSH1 0xA0 SHL SUB NOT AND PUSH1 0x1 PUSH1 0x1 PUSH1 0xA0 SHL SUB DUP9 AND SWAP1 DUP2 OR SWAP1 SWAP2 SSTORE DUP1 DUP6 MSTORE SWAP2 DUP5 SWAP1 MSTORE SWAP3 DUP4 SWAP1 KECCAK256 DUP1 SLOAD PUSH1 0xFF NOT AND DUP4 OR SWAP1 SSTORE SWAP2 MLOAD PUSH32 0x89B4E995568C900AA52376CBED225DC1A013C9A43CB58186D69676FF593D7C4E SWAP2 PUSH2 0x30E SWAP2 PUSH2 0x514 JUMP JUMPDEST PUSH1 0x40 MLOAD DUP1 SWAP2 SUB SWAP1 LOG2 POP POP POP JUMP JUMPDEST CALLER PUSH1 0x0 SWAP1 DUP2 MSTORE PUSH1 0x20 DUP2 SWAP1 MSTORE PUSH1 0x40 DUP2 KECCAK256 SLOAD PUSH1 0xFF AND PUSH1 0x2 DUP2 GT ISZERO PUSH2 0x33F JUMPI PUSH2 0x33F PUSH2 0x4FE JUMP JUMPDEST EQ PUSH2 0x381 JUMPI PUSH1 0x40 MLOAD PUSH3 0x461BCD PUSH1 0xE5 SHL DUP2 MSTORE PUSH1 0x20 PUSH1 0x4 DUP3 ADD MSTORE PUSH1 0x12 PUSH1 0x24 DUP3 ADD MSTORE PUSH18 0x105B1C9958591E481C9959DA5CDD195C9959 PUSH1 0x72 SHL PUSH1 0x44 DUP3 ADD MSTORE PUSH1 0x64 ADD PUSH2 0x16C JUMP JUMPDEST PUSH1 0x40 MLOAD PUSH4 0x54F6127F PUSH1 0xE0 SHL DUP2 MSTORE PUSH32 0xCCA8575AB1E8123D663A74136DBBD0EAE83F7A68284EE4D979C790AFB6506112 PUSH1 0x4 DUP3 ADD MSTORE CALLER SWAP1 PUSH1 0x0 SWAP1 DUP3 SWAP1 PUSH4 0x54F6127F SWAP1 PUSH1 0x24 ADD PUSH1 0x0 PUSH1 0x40 MLOAD DUP1 DUP4 SUB DUP2 DUP7 GAS STATICCALL ISZERO DUP1 ISZERO PUSH2 0x3E1 JUMPI RETURNDATASIZE PUSH1 0x0 DUP1 RETURNDATACOPY RETURNDATASIZE PUSH1 0x0 REVERT JUMPDEST POP POP POP POP PUSH1 0x40 MLOAD RETURNDATASIZE PUSH1 0x0 DUP3 RETURNDATACOPY PUSH1 0x1F RETURNDATASIZE SWAP1 DUP2 ADD PUSH1 0x1F NOT AND DUP3 ADD PUSH1 0x40 MSTORE PUSH2 0x409 SWAP2 SWAP1 DUP2 ADD SWAP1 PUSH2 0x552 JUMP JUMPDEST SWAP1 POP PUSH1 0x0 DUP2 MLOAD GT PUSH2 0x454 JUMPI PUSH1 0x40 MLOAD PUSH3 0x461BCD PUSH1 0xE5 SHL DUP2 MSTORE PUSH1 0x20 PUSH1 0x4 DUP3 ADD MSTORE PUSH1 0x15 PUSH1 0x24 DUP3 ADD MSTORE PUSH21 0x50726F76696465722064617461206D697373696E67 PUSH1 0x58 SHL PUSH1 0x44 DUP3 ADD MSTORE PUSH1 0x64 ADD PUSH2 0x16C JUMP JUMPDEST PUSH1 0x1 PUSH1 0x1 PUSH1 0xA0 SHL SUB DUP3 AND PUSH1 0x0 DUP2 DUP2 MSTORE PUSH1 0x20 DUP2 SWAP1 MSTORE PUSH1 0x40 SWAP1 DUP2 SWAP1 KECCAK256 DUP1 SLOAD PUSH1 0xFF NOT AND PUSH1 0x2 SWAP1 DUP2 OR SWAP1 SWAP2 SSTORE SWAP1 MLOAD PUSH32 0x89B4E995568C900AA52376CBED225DC1A013C9A43CB58186D69676FF593D7C4E SWAP2 PUSH2 0x4A9 SWAP2 PUSH2 0x514 JUMP JUMPDEST PUSH1 0x40 MLOAD DUP1 SWAP2 SUB SWAP1 LOG2 POP POP JUMP JUMPDEST PUSH1 0x0 PUSH1 0x20 DUP3 DUP5 SUB SLT ISZERO PUSH2 0x4C7 JUMPI PUSH1 0x0 DUP1 REVERT JUMPDEST POP CALLDATALOAD SWAP2 SWAP1 POP JUMP JUMPDEST PUSH1 0x0 PUSH1 0x20 DUP3 DUP5 SUB SLT ISZERO PUSH2 0x4E0 JUMPI PUSH1 0x0 DUP1 REVERT JUMPDEST DUP2 CALLDATALOAD PUSH1 0x1 PUSH1 0x1 PUSH1 0xA0 SHL SUB DUP2 AND DUP2 EQ PUSH2 0x4F7 JUMPI PUSH1 0x0 DUP1 REVERT JUMPDEST SWAP4 SWAP3 POP POP POP JUMP JUMPDEST PUSH4 0x4E487B71 PUSH1 0xE0 SHL PUSH1 0x0 MSTORE PUSH1 0x21 PUSH1 0x4 MSTORE PUSH1 0x24 PUSH1 0x0 REVERT JUMPDEST PUSH1 0x20 DUP2 ADD PUSH1 0x3 DUP4 LT PUSH2 0x536 JUMPI PUSH4 0x4E487B71 PUSH1 0xE0 SHL PUSH1 0x0 MSTORE PUSH1 0x21 PUSH1 0x4 MSTORE PUSH1 0x24 PUSH1 0x0 REVERT JUMPDEST SWAP2 SWAP1 MSTORE SWAP1 JUMP JUMPDEST PUSH4 0x4E487B71 PUSH1 0xE0 SHL PUSH1 0x0 MSTORE PUSH1 0x41 PUSH1 0x4 MSTORE PUSH1 0x24 PUSH1 0x0 REVERT JUMPDEST PUSH1 0x0 PUSH1 0x20 DUP3 DUP5 SUB SLT ISZERO PUSH2 0x564 JUMPI PUSH1 0x0 DUP1 REVERT JUMPDEST DUP2 MLOAD PUSH8 0xFFFFFFFFFFFFFFFF DUP2 GT ISZERO PUSH2 0x57B JUMPI PUSH1 0x0 DUP1 REVERT JUMPDEST DUP3 ADD PUSH1 0x1F DUP2 ADD DUP5 SGT PUSH2 0x58C JUMPI PUSH1 0x0 DUP1 REVERT JUMPDEST DUP1 MLOAD PUSH8 0xFFFFFFFFFFFFFFFF DUP2 GT ISZERO PUSH2 0x5A6 JUMPI PUSH2 0x5A6 PUSH2 0x53C JUMP JUMPDEST PUSH1 0x40 MLOAD PUSH1 0x1F DUP3 ADD PUSH1 0x1F NOT SWAP1 DUP2 AND PUSH1 0x3F ADD AND DUP2 ADD PUSH8 0xFFFFFFFFFFFFFFFF DUP2 GT DUP3 DUP3 LT OR ISZERO PUSH2 0x5D5 JUMPI PUSH2 0x5D5 PUSH2 0x53C JUMP JUMPDEST PUSH1 0x40 MSTORE DUP2 DUP2 MSTORE DUP3 DUP3 ADD PUSH1 0x20 ADD DUP7 LT ISZERO PUSH2 0x5ED JUMPI PUSH1 0x0 DUP1 REVERT JUMPDEST PUSH1 0x0 JUMPDEST DUP3 DUP2 LT ISZERO PUSH2 0x60C JUMPI PUSH1 0x20 DUP2 DUP6 ADD DUP2 ADD MLOAD DUP4 DUP4 ADD DUP3 ADD MSTORE ADD PUSH2 0x5F0 JUMP JUMPDEST POP PUSH1 0x0 SWAP2 DUP2 ADD PUSH1 0x20 ADD SWAP2 SWAP1 SWAP2 MSTORE SWAP5 SWAP4 POP POP POP POP JUMP INVALID LOG2 PUSH5 0x6970667358 0x22 SLT KECCAK256 CREATE 0xCC SHR 0xF6 PUSH0 0x4F TIMESTAMP EXTCODECOPY GASLIMIT 0xFC KECCAK256 DUP10 CALL XOR ADDRESS 0xCF SWAP15 0x1E XOR 0x2E 0xBC DUP12 EXTCODECOPY BLOBHASH MOD CALLDATACOPY 0xE8 CREATE PUSH18 0x8E1FD864736F6C634300081C003300000000 "},"methodIdentifiers":{"PROVIDER_DATA_KEY()":"5898fd63","STUDENT_DATA_KEY()":"f3f9dfdf","registerAsProvider()":"b4d4dc05","registerAsStudent(bytes32)":"4adf53f4","roles(address)":"99374642"}},"storageLayout":{"storage":[{"astId":74,"contract":"contracts/CertificateRegistry.sol:CertificateRegistry","label":"roles","offset":0,"slot":"0","type":"t_mapping(t_address,t_enum(Role)69)"},{"astId":78,"contract":"contracts/CertificateRegistry.sol:CertificateRegistry","label":"_studentIds","offset":0,"slot":"1","type":"t_mapping(t_bytes32,t_address)"}],"types":{"t_address":{"encoding":"inplace","label":"address","numberOfBytes":"20"},"t_bytes32":{"encoding":"inplace","label":"bytes32","numberOfBytes":"32"},"t_enum(Role)69":{"encoding":"inplace","label":"enum CertificateRegistry.Role","numberOfBytes":"1"},"t_mapping(t_address,t_enum(Role)69)":{"encoding":"mapping","key":"t_address","label":"mapping(address => enum CertificateRegistry.Role)","numberOfBytes":"32","value":"t_enum(Role)69"},"t_mapping(t_bytes32,t_address)":{"encoding":"mapping","key":"t_bytes32","label":"mapping(bytes32 => address)","numberOfBytes":"32","value":"t_address"}}}}}}