{
  "_format": "hh-sol-artifact-1",
  "contractName": "UserRegistry",
  "sourceName": "contracts/UserRegistry.sol",
  "abi": [
    {
      "anonymous": false,
      "inputs": [
        {
          "indexed": true,
          "internalType": "address",
          "name": "user",
          "type": "address"
        },
        {
          "indexed": false,
          "internalType": "string",
          "name": "role",
          "type": "string"
        },
        {
          "indexed": false,
          "internalType": "string",
          "name": "metadataHash",
          "type": "string"
        }
      ],
      "name": "Registered",
      "type": "event"
    },
    {
      "inputs": [],
      "name": "getAllUsers",
      "outputs": [
        {
          "internalType": "address[]",
          "name": "",
          "type": "address[]"
        }
      ],
      "stateMutability": "view",
      "type": "function"
    },
    {
      "inputs": [
        {
          "internalType": "address",
          "name": "userAddress",
          "type": "address"
        }
      ],
      "name": "getRole",
      "outputs": [
        {
          "internalType": "string",
          "name": "",
          "type": "string"
        }
      ],
      "stateMutability": "view",
      "type": "function"
    },
    {
      "inputs": [
        {
          "internalType": "address",
          "name": "userAddress",
          "type": "address"
        }
      ],
      "name": "getUser",
      "outputs": [
        {
          "internalType": "string",
          "name": "role",
          "type": "string"
        },
        {
          "internalType": "string",
          "name": "metadataHash",
          "type": "string"
        }
      ],
      "stateMutability": "view",
      "type": "function"
    },
    {
      "inputs": [
        {
          "internalType": "address",
          "name": "userAddress",
          "type": "address"
        }
      ],
      "name": "isUserRegistered",
      "outputs": [
        {
          "internalType": "bool",
          "name": "",
          "type": "bool"
        }
      ],
      "stateMutability": "view",
      "type": "function"
    },
    {
      "inputs": [
        {
          "internalType": "string",
          "name": "role",
          "type": "string"
        },
        {
          "internalType": "string",
          "name": "metadataHash",
          "type": "string"
        }
      ],
      "name": "registerUser",
      "outputs": [],
      "stateMutability": "nonpayable",
      "type": "function"
    },
    {
      "inputs": [
        {
          "internalType": "address",
          "name": "",
          "type": "address"
        }
      ],
      "name": "users",
      "outputs": [
        {
          "internalType": "string",
          "name": "role",
          "type": "string"
        },
        {
          "internalType": "string",
          "name": "metadataHash",
          "type": "string"
        }
      ],
      "stateMutability": "view",
      "type": "function"
    }
  ],
  "bytecode": "0x6080604052348015600f57600080fd5b506109998061001f6000396000f3fe608060405234801561001057600080fd5b50600436106100625760003560e01c8063163f7522146100675780631d2e4afd1461008f57806344276733146100a45780636f77926b146100c4578063a87430ba146100e5578063e2842d79146100f8575b600080fd5b61007a61007536600461060a565b61010d565b60405190151581526020015b60405180910390f35b6100a261009d3660046106df565b61013d565b005b6100b76100b236600461060a565b610262565b604051610086919061078e565b6100d76100d236600461060a565b61030e565b6040516100869291906107a1565b6100d76100f336600461060a565b61047c565b6101006105a8565b60405161008691906107cf565b6001600160a01b038116600090815260208190526040812080548291906101339061081b565b9050119050919050565b33600090815260208190526040902080546101579061081b565b15905061019f5760405162461bcd60e51b8152602060048201526012602482015271105b1c9958591e481c9959da5cdd195c995960721b604482015260640160405180910390fd5b600180548082019091557fb10e2d527612073b26eecdfd717e6a320cf44b4afac2b0732d9fcbe2b7fa0cf60180546001600160a01b031916339081179091556040805180820182528481526020818101859052600093845283905291208151819061020a90826108a4565b506020820151600182019061021f90826108a4565b50506040513391507f80788e6e1951532975ceb5ca698dfbf35d3a99bc9c440d8e1bb7301534ab72a29061025690859085906107a1565b60405180910390a25050565b6001600160a01b03811660009081526020819052604090208054606091906102899061081b565b80601f01602080910402602001604051908101604052809291908181526020018280546102b59061081b565b80156103025780601f106102d757610100808354040283529160200191610302565b820191906000526020600020905b8154815290600101906020018083116102e557829003601f168201915b50505050509050919050565b6060806000806000856001600160a01b03166001600160a01b031681526020019081526020016000206040518060400160405290816000820180546103529061081b565b80601f016020809104026020016040519081016040528092919081815260200182805461037e9061081b565b80156103cb5780601f106103a0576101008083540402835291602001916103cb565b820191906000526020600020905b8154815290600101906020018083116103ae57829003601f168201915b505050505081526020016001820180546103e49061081b565b80601f01602080910402602001604051908101604052809291908181526020018280546104109061081b565b801561045d5780601f106104325761010080835404028352916020019161045d565b820191906000526020600020905b81548152906001019060200180831161044057829003601f168201915b5050505050815250509050806000015181602001519250925050915091565b6000602081905290815260409020805481906104979061081b565b80601f01602080910402602001604051908101604052809291908181526020018280546104c39061081b565b80156105105780601f106104e557610100808354040283529160200191610510565b820191906000526020600020905b8154815290600101906020018083116104f357829003601f168201915b5050505050908060010180546105259061081b565b80601f01602080910402602001604051908101604052809291908181526020018280546105519061081b565b801561059e5780601f106105735761010080835404028352916020019161059e565b820191906000526020600020905b81548152906001019060200180831161058157829003601f168201915b5050505050905082565b6060600180548060200260200160405190810160405280929190818152602001828054801561060057602002820191906000526020600020905b81546001600160a01b031681526001909101906020018083116105e2575b5050505050905090565b60006020828403121561061c57600080fd5b81356001600160a01b038116811461063357600080fd5b9392505050565b634e487b7160e01b600052604160045260246000fd5b600082601f83011261066157600080fd5b813567ffffffffffffffff81111561067b5761067b61063a565b604051601f8201601f19908116603f0116810167ffffffffffffffff811182821017156106aa576106aa61063a565b6040528181528382016020018510156106c257600080fd5b816020850160208301376000918101602001919091529392505050565b600080604083850312156106f257600080fd5b823567ffffffffffffffff81111561070957600080fd5b61071585828601610650565b925050602083013567ffffffffffffffff81111561073257600080fd5b61073e85828601610650565b9150509250929050565b6000815180845260005b8181101561076e57602081850181015186830182015201610752565b506000602082860101526020601f19601f83011685010191505092915050565b6020815260006106336020830184610748565b6040815260006107b46040830185610748565b82810360208401526107c68185610748565b95945050505050565b602080825282518282018190526000918401906040840190835b818110156108105783516001600160a01b03168352602093840193909201916001016107e9565b509095945050505050565b600181811c9082168061082f57607f821691505b60208210810361084f57634e487b7160e01b600052602260045260246000fd5b50919050565b601f82111561089f57806000526020600020601f840160051c8101602085101561087c5750805b601f840160051c820191505b8181101561089c5760008155600101610888565b50505b505050565b815167ffffffffffffffff8111156108be576108be61063a565b6108d2816108cc845461081b565b84610855565b6020601f82116001811461090657600083156108ee5750848201515b600019600385901b1c1916600184901b17845561089c565b600084815260208120601f198516915b828110156109365787850151825560209485019460019092019101610916565b50848210156109545786840151600019600387901b60f8161c191681555b50505050600190811b0190555056fea26469706673582212209352c02155ce47f261c164710b8f3b4e84d825cb47ad4367d4919c6e2090d79964736f6c634300081c0033",
  "linkReferences": {},
  "deployedLinkReferences": {}
}